:040000008A110E282B
:100008000B190628A10B0C281030A10020140000A1
:100018000B110900031383120030A000031383128D
:10002800A2000313831600309B00031383160330CA
:1000380085000313831600308600031383120030F3
:100048008600031383168730810003138312103050
:10005800A100031383128B160B118B17201C682821
:100068000000031383120508033903138312A30046
:10007800220203195C280000031383122308003CA2
:100088000319552847282308013C031955284C28EB
:100098002308023C0319552851282308033C031957
:1000A8000000230803138312230803138312A200FA
:1000B800031383120000861A65286228FF30860021
:1000C800682886120000000020103228080054001A
:1000D80065006B0073007400200031005400650057
:1000E8006B007300740020003200540065006B0040
:1000F8007300740020003300540065006B00730027
:0601080074002000340029
:04400E00FB3FFF3F36
:00000001FF
